:020000040800F2
:10000000D01B0020C5060008A9060008AB060008A2
:10001000AF060008B3060008B7060008000000009D
:10002000000000000000000000000000BB06000807
:10003000BD06000800000000BF060008C106000859
:10004000DF060008DF060008DF0600084347000857
:10005000DF060008DF06000839010008DF06000897
:10006000DF060008DF060008DF060008DF060008DC
:10007000DF060008DF060008DF060008DF060008CC
:10008000DF060008DF060008DF060008DF060008BC
:10009000DF060008DF060008DF0600089F010008F1
:1000A000DF060008DF060008DF060008DF0600089C
:1000B000694C0008DF060008DF060008DF060008BC
:1000C000DF060008DF060008DF060008DF0600087C
:1000D000DF06000839460008434600084D46000880
:1000E00057010008FD460008DF060008DF0600088B
:1000F000DF06000800000000DF060008DF06000839
:100100000000000000000000DF060008DF06000815
:10011000DF060008DF060008DF060008DF0600082B
:10012000DF060008DFF80CD006F092FF0048004719
:100130006B030008D01B002010B5012000F085FEE5
:1001400040B1012000F07DFE012000F08FFEFEA0F6
:1001500006F0B0FF10BD10B54FF4006000F075FE62
:10016000E0B14FF4006000F06CFE4FF4006000F06E
:100170007DFE4FF40061F74800F042FF70B1F64891
:10018000006820F4007000F50070F349086008462C
:10019000806820F0607000F1C070886010BD10B5FC
:1001A0004FF4807000F051FE28B34FF4807000F0DF
:1001B00048FE4FF4807000F059FE4FF48071E5481E
:1001C00000F01EFFB8B9E448006820F0200020309D
:1001D000E1490860E148007828B10846806820F0CD
:1001E0006070886007E0DC48806820F0607000F193
:1001F0008070D949886010BD10B54FF40061D548B2
:1002000000F0FEFED0B1D6480088401CD4490880DA
:100210000846008805282EDB05200880CE480068A7
:1002200020F4007000F50070CB4908600846806833
:1002300020F0607000F1C07088601CE0C848008841
:10024000002805DDC6480088401EC549088012E028
:10025000C148006820F40070BF4908600846806803
:10026000C0F3C250032806D10846806820F06070B1
:1002700000F18070886010BD2DE9FC410546002426
:100280000026B84F55BBBE68304606F07DFE06F02E
:1002900071FE3B2190FBF1F201FB1200C4B2B248A7
:1002A0008470361B304606F06FFE06F063FE3B217D
:1002B00090FBF1F201FB1200C4B2AB48C470361BD4
:1002C000304606F061FE06F055FE172190FBF1F274
:1002D00001FB1200C4B2A448447044E0012D20D1B7
:1002E000684604F0CAFB9DF80300801C9E494870D4
:1002F0009DF80400401C88709DF80500C8700846F1
:100300004078172803DD084640781838487096482A
:1003100080783B2827DD944880783C389249887063
:1003200021E0022D1FD1684604F0A7FB9DF80300D1
:10033000801D8D4948709DF80400401C88709DF810
:100340000500C87008464078172803DD0846407845
:1003500018384870844880783B2804DD82488078CB
:100360003C3881498870BDE8FC814FF4C04000F002
:10037000B1FF03F056F9642004F09DF903F018FC76
:10038000C82004F098F905F079F910207749C88160
:10039000002201026F4800F04FFE6F48006820F015
:1003A000200020306C4908600020FFF765FF4FF403
:1003B0000061684800F024FE78B16748006820F4C6
:1003C000007000F50070644908600846806820F0FD
:1003D000607000F1C070886011E06048007830B152
:1003E0005D48806820F060705B49886007E05A488B
:1003F000806820F0607000F18070574988603CE1AF
:1004000055480068C0F34010002855D15248006894
:1004100020F480605049086005F007FE01221103B6
:100420004C4800F009FE52480078022802DD002006
:100430004F4908704E480078FFF71EFF03F0D2FBCB
:1004400005F01CF9454800784949097809B90121A6
:1004500000E00021084098B13F48806820F06070BB
:100460003D498860002280213A4800F0E5FD0020E7
:10047000404981F878004FF4FA7004F01CF9FCE070
:10048000364800780028BAD03348806820F0607081
:1004900000F50000304988600846006820F480605C
:1004A00000F58060086001225102334800F0C4FD6D
:1004B000642004F000F9E0E0FFF79EFE2648806823
:1004C000C0F3C250032801D0012000E000202249DF
:1004D0008968C1F3C25109B1012100E0002108403F
:1004E0001D498968C1F3C251012901D0012100E0F1
:1004F0000021084038B11848806820F0607000F191
:1005000080701549886014488068C0F3C250032881
:1005100006D106F0C3FA4FF4C87004F0CCF8A9E095
:100520000D488068C0F3C250002864D113480068A9
:10053000B0F57A7F33D30020104908600D4890F859
:100540007800411C1CE0000073657475702E0D0A64
:100550000000000000000240A800002081170020D9
:10056000000000205000F81FC80E00209411002049
:1005700004000020FB150020000402405000002071
:100580003EA006F097FD434991F8780006F026FB5F
:10059000404890F87800401C3E4981F878003D487A
:1005A00090F8781090F87B00401E814262DD3A4856
:1005B00005F0E6FF384806F060F80020354981F87C
:1005C00078003648806820F0607000F500003349FC
:1005D00088600846006820F4806000F5806008604C
:1005E00003F042FA012251022D4800F025FD64205B
:1005F00004F061F83EE029488068C0F3C250012849
:100600001AD105F08FFF05F01EFA05F077FC05F012
:100610000CFD22480068C0F3802058BB1F4880684A
:1006200020F0607000F100701C4988600846006886
:1006300020F0200008601DE018488068C0F3C25018
:10064000022817D117480088401C16490880084620
:10065000008864280EDD002008801048806820F0A3
:10066000607000F100700D4988600846006820F055
:1006700020000860142004F01EF8C1E64E6F7720B9
:1006800069732052454144204E4F2E25642E0D0A99
:1006900000000000FB150020F0100020A800002042
:1006A0000004024002000020704700BFFEE700BFC8
:1006B000FEE700BFFEE700BFFEE7704770477047E8
:1006C000704700000648804706480047FEE7FEE7FF
:1006D000FEE7FEE7FEE7FEE7FEE7FEE7FEE7FEE7F2
:1006E000CB3500082501000832490143324A116028
:1006F000704770B5002100230F22C4781CB32E4C24
:10070000246804F4E064C4F5E064C4F30721C1F193
:100710000404E3B20A4144789C40E1B28478144076
:1007200021430C07210E254C05786155047804F00F
:100730001F050124AC4005786D11AD0005F1E025E1
:10074000C5F8004109E0047804F01F050124AC401D
:100750001B4D0678761145F8264070BD194A0A40AF
:100760000243154B1B1F1A60704739B1124A121D04
:1007700012680243104B1B1D1A6006E00E4A121D40
:10078000126882430C4B1B1D1A607047042808D165
:100790004FF0E021096941F004014FF0E0221161BE
:1007A00007E04FF0E021096921F004014FF0E02259
:1007B000116170470000FA050CED00E000E400E074
:1007C00080E100E080FFFF1F10B50446FE48844230
:1007D00007D10121401500F0D1FE0021601500F085
:1007E000CDFE10BD30B50246002000235068F74C06
:1007F00020400D790C6844EA05242043506090683D
:10080000F34C2040D1E903542C438D682C434D799F
:1008100044EA450420439060106B20F0F8700C7D92
:10082000641EE4B2234340EA0350106330BD00214C
:1008300001600171417181604FF04071C160002120
:10084000016101210175704701460020E14A1068ED
:1008500020F440300A681043DE4A106070470021DF
:100860000160704721B1826842F00102826003E0BA
:10087000826822F001028260704721B1826842F0F2
:100880000402826003E0826822F004028260704702
:100890001AB143680B43436002E043688B434360F3
:1008A00070470A460021816821F0F0011143816000
:1008B00070470A4600214168C74B19401143416007
:1008C00070478162C26270470A460021416821F088
:1008D0001F0111434160704730B1BE49096841F4BE
:1008E0000001BC4A116005E0BA49096821F4000121
:1008F000B84A11607047F0B504460D46002000214B
:100900001D2D11DDE06DA5F11E0606EB460707263D
:1009100006FA07F18843A5F11E0606EB460603FA20
:1009200006F10843E06534E0132D11DDE068A5F120
:10093000140606EB4607072606FA07F18843A5F1D9
:10094000140606EB460603FA06F10843E06020E0D1
:10095000092D11DD2069A5F10A0606EB46070726D9
:1009600006FA07F18843A5F10A0606EB460603FAE4
:1009700006F1084320610CE0606905EB4507072696
:1009800006FA07F1884305EB450603FA06F108432A
:100990006061072A0FDA206C561E06EB86071F26B9
:1009A00006FA07F18843561E06EB860605FA06F19D
:1009B000084320644AE00D2A0FDAE06BD61F06EBED
:1009C00086071F2606FA07F18843D61F06EB860620
:1009D00005FA06F10843E06338E0132A11DAA06B48
:1009E000A2F10D0606EB86071F2606FA07F18843DB
:1009F000A2F10D0606EB860605FA06F10843A06390
:100A000024E0192A11DA606BA2F1130606EB8607BF
:100A10001F2606FA07F18843A2F1130606EB8606A5
:100A200005FA06F10843606310E0206BA2F1190695
:100A300006EB86071F2606FA07F18843A2F119067E
:100A400006EB860605FA06F108432063F0BD8168CF
:100A500041F0804181607047014600208A6802F0C1
:100A600080420AB1012000E00020704721B1826875
:100A700042F48062826003E0826822F480628260D5
:100A8000704721B1826842F00202826003E082680E
:100A900022F002028260704710B50A46002100234E
:100AA000416821F46041531E41EA4331416010BD69
:100AB00021B1426842F40062426003E0426822F4DD
:100AC0000062426070470146886D80B2704721B174
:100AD000826842F48072826003E0826822F480724D
:100AE0008260704721B1826842F40072826003E044
:100AF000826822F4007282607047F0B504461546A1
:100B00000020002200261D2911DDE06DA1F11E0745
:100B100007EB470C072707FA0CF29043A1F11E07D9
:100B200007EB470703FA07F21043E06534E01329A7
:100B300011DDE068A1F1140707EB470C072707FA5E
:100B40000CF29043A1F1140707EB470703FA07F2F1
:100B50001043E06020E0092911DD2069A1F10A07B6
:100B600007EB470C072707FA0CF29043A1F10A079D
:100B700007EB470703FA07F2104320610CE06069B6
:100B800001EB410C072707FA0CF2904301EB4107F8
:100B900003FA07F210436061606CC0F30156EF1C6A
:100BA00006F1010CA7EB0C0707EB870C1F2707FAD0
:100BB0000CF29043EF1C06F1010CA7EB0C0707EBBE
:100BC000870701FA07F209E000240140FFFEFFFC5D
:100BD000FDF7FFC004270140FFFD3FFF10436064A5
:100BE000F0BD10B50A4600210023416C21F44011EC
:100BF000531E41EA0351416410BD08B50023009320
:100C00000090009B0B440093009B1A6008BD0A46AD
:100C10000021816821F470211143816070470A46E8
:100C20000021816821F4401111438160704781687F
:100C300041F4800181607047014600208A6802F417
:100C400080020AB1012000E00020704721B1426813
:100C500042F48062426003E0426822F480624260B3
:100C6000704721B1426842F48052426003E042681A
:100C700022F480524260704708B50246002000907E
:100C8000009201F13000009B184400900098006829
:100C900080B208BD10B50B460021D9B2012404FA78
:100CA00001F11AB144680C43446002E044688C438B
:100CB000446010BD0246002013680B400BB10120B8
:100CC00000E000207047CA430260704770B50246DA
:100CD0000020002300240B0A556801268E4005EAF7
:100CE000060415681D4015B10CB1012000E000207C
:100CF00070BD00220A12D343036070471748006892
:100D0000000C704715480068C0F30B00704729B10C
:100D1000124A52680243114B5A6004E00F4A52686B
:100D200082430E4B5A60704729B10C4A92680243C5
:100D30000A4B9A6004E0094A92688243074B9A6022
:100D4000704729B1054AD2680243044BDA6004E0D7
:100D5000024AD2688243014BDA607047002004E007
:100D6000002044490860091D0860091D0860091D2C
:100D700008606FF07F403F491431086070470021E0
:100D80003C498279002A3AD00A46126803689A439D
:100D90000B461A600A1D126803689A430B1D1A60FD
:100DA000027911440A6803681A430A60314A08321A
:100DB000126803689A432F4B08331A601A1D126891
:100DC00003689A432B4B0C331A604279102A0ED1D8
:100DD0001A1F126803681A43264B08331A601A1D3B
:100DE000126803681A43234B0C331A600DE0214943
:100DF000427911440A6803681A430A6005E00279DF
:100E000011440A6803689A430A6070470021016030
:100E100001710C2141710021817170471549103118
:100E200009680143134A10321160704701460020DF
:100E3000104A143212680A400AB1012000E0002072
:100E400070470C49143108607047014600200022A9
:100E5000084B1B6803EA0102064B14331B680B4066
:100E600013B10AB1012000E000207047014914319C
:100E7000086070470004014010B50446854884426C
:100E800008D10121084600F068FB0021012000F094
:100E900064FB52E08048844208D10121022000F026
:100EA0005CFB0021022000F058FB46E07B488442B6
:100EB00008D10121042000F050FB0021042000F0A3
:100EC0004CFB3AE07648844208D10121082000F02A
:100ED00044FB0021082000F040FB2EE071488442D2
:100EE00008D10121102000F038FB0021102000F073
:100EF00034FB22E06C48844208D10121402000F0FC
:100F00002CFB0021402000F028FB16E067488442BB
:100F100008D10121802000F020FB0021802000F07A
:100F20001CFB0AE06248844207D10121202000F026
:100F300014FB0021202000F010FB10BDF0B50A4684
:100F400000210023002400BF3DE0012505FA01F344
:100F5000156805EA03049C4234D105684F00032656
:100F6000BE40B543056015794E00B540066835436F
:100F700005601579012D02D01579022D16D18568ED
:100F80004F000326BE40B543856055794E00B540FD
:100F9000866835438560858801268E40B543858007
:100FA000858896798E40B6B235438580C5684F00F6
:100FB0000326BE40B543C560D5794E00B540C6682E
:100FC0003543C560491C1029BFD3F0BD4FF6FF71F2
:100FD00001600021017141718171C171704708B5D3
:100FE0004FF480320092009A0A430092009AC26144
:100FF000C161009AC261C2690092C269009208BDD3
:1010000002460020138A0B400BB1012000E00020B3
:1010100070470146088A704702460020938A0B40B9
:101020000BB1012000E0002070470146888A70471C
:1010300001837047418370470AB1018300E0418317
:10104000704781827047828A4A4082827047F0B539
:10105000002300244D07ED0E02FA05F3CE1000F137
:10106000200555F826504E07F70E0F26BE40B54313
:10107000CF1000F1200646F82750CE1000F12005D1
:1010800055F8265045EA0304CE1000F1200545F836
:101090002640F0BD0000024000040240000802406B
:1010A000000C02400010024000180240001C0240E8
:1010B0000014024010B50121080700F070FA002169
:1010C0004FF0805000F06BFA10BD4D490862704738
:1010D000014600204B4A106820F0E00008431060F1
:1010E000704747490861704708B500220092444A9A
:1010F000A03202440092009A116008BD4049886203
:1011000070473F4948627047014600203D4A1068D9
:1011100020F4C050084320F00C023A4B1A6070478C
:1011200058B13849096841F00101364A1160114649
:10113000096841F4804111600AE03249096821F4EC
:101140008041304A11601146096821F001011160A7
:10115000704710B5024600202A4B186820F00300A3
:1011600010431860284B1B6823F00403264C2360AF
:10117000012901D130BF00E020BF10BD10B50246EB
:101180000020204B186820F00300104318601E4B0D
:101190001B6843F004031C4C2360012901D130BFBC
:1011A00000E020BF184B1B6823F00403164C23609B
:1011B00010BD1448006840F0040012490860084659
:1011C000006840F0020008600F48006840F004002A
:1011D0000D49086000BF00BF30BF704701460020C6
:1011E000084A52680A400AB1012000E00020704716
:1011F0000449096841EA8001024A11607047000011
:1012000000000E420070004010ED00E0F948006858
:1012100040F48070F7490860F64808300068F649E5
:101220000840F44908310860F2480068F349084072
:10123000F04908600846006820F480200860ED4806
:101240000830006820F47D00EA4908310860002079
:10125000091D086070470021E64A921C1170114672
:101260000870704710B501460022002300204A1183
:10127000012A02D1DF4C236802E0DE4C34342368BB
:1012800001F01F02012494401C400CB1012000E039
:10129000002010BD38B5002000900024002500BFBC
:1012A0003120FFF7DFFF05460098401C00900098B2
:1012B000B0F5A06F01D0002DF2D03120FFF7D2FFA2
:1012C00008B1012400E00024204638BDC949C91DE9
:1012D0000870704701460020C64A121D106820F4AD
:1012E0006040084310607047C54908627047014676
:1012F0000020C04A121D106820F4F85040EA012076
:1013000010607047BE49086070470021B94A353205
:101310001170114608707047BA490860704710B5DF
:1013200041EA02030343B34C0A34237010BDB449AD
:1013300008667047B24908677047B2492C310860A7
:10134000704740EA0102AB4B0B331A7070470146FD
:101350000020A84A0832106820F0030008431060FB
:101360007047A4480830006800F00C007047014640
:101370000020A04A0832106820F0F00008431060F6
:101380007047014600209B4A0832106820F4E06054
:1013900008431060704701460020964A08321068E2
:1013A00020F4605040EAC10010607047F0B50021A1
:1013B000002200230026002400258E4F08373F68B6
:1013C00007F00C0131B1042912D0082913D00C29DF
:1013D00037D113E0874F3F1D3F68C7F342356F1C7D
:1013E0004FF0010C0CFA07FC4FEACC37076036E0EF
:1013F000854F076033E0854F076030E07D4F083749
:101400003F6807F470127B4F08373F6807F44003CA
:101410007F4F07EB92473A78012707EB9353754FBD
:1014200008373F6807F480362EB9774F5743B7FB2C
:10143000F3F7076004E0754F5743B7FBF3F7076016
:101440000DE06C4F3F1D3F68C7F342356F1C4FF0F6
:10145000010C0CFA07FC4FEACC37076000BF00BF55
:10146000644F08373F6807F0F0010909694F7C5C59
:101470000768E74047605F4F08373F6807F4E0615F
:10148000090A644F7C5C4768E7408760594F08371A
:101490003F6807F46051C90A5E4F7C5C4768E740CB
:1014A000C760F0BD002100F44032B2F5403F08D1E2
:1014B000504A116821F0C04100F0C04211434D4A2A
:1014C00011604C4A3432126822F44032494B3433B2
:1014D0001A601A46126800F440331A43454B3433FD
:1014E0001A607047474958310860704745495C3178
:1014F0000860704739B13F4A1C32126802433D4BC5
:101500001C331A6006E03B4A1C3212688243394B96
:101510001C331A60704739B1364A203212680243D0
:10152000344B20331A6006E0324A2032126882437C
:10153000304B20331A60704739B12E4A243212687A
:1015400002432C4B24331A6006E02A4A24321268E4
:101550008243284B24331A60704739B1254A103230
:1015600012680243234B10331A6006E0214A1032FE
:10157000126882431F4B10331A60704739B11D4AFD
:101580001432126802431B4B14331A6006E0194AE6
:10159000143212688243174B14331A60704739B102
:1015A000144A183212680243124B18331A6006E0CC
:1015B000104A1832126882430E4B18331A60704773
:1015C00039B10C4A2832126802430A4B28331A6098
:1015D00006E0084A283212688243064B28331A6014
:1015E0007047C9B1034A2C3212680243014B2C33B5
:1015F0001A6016E0003802400CC0FF88FEFFFEEEC5
:1016000000004742800647420024F40000127A009E
:10161000060000200F0000201F4A126882431E4B64
:101620001A60704739B11C4A121D126802431A4BE6
:101630001B1D1A6006E0184A121D12688243164BE1
:101640001B1D1A60704739B1134A1F3A12780243C2
:10165000114B1F3B1A7006E00F4A1F3A1278824363
:101660000D4B1F3B1A7070470B480830006840F064
:101670008070094908310860704701460020064A19
:10168000203A12680A400AB1012000E000207047A9
:1016900001491E39087070472C38024008B50022F5
:1016A000009200200021CA22F94B1A6053221A60CE
:1016B000F74A183A126822F0A002F54B183B1A605C
:1016C00000BFF34A183A126802F02001009A521C37
:1016D0000092009AB2F5004F01D00029F1D0EC4AF7
:1016E000183A126802F020020AB1012000E000203E
:1016F000FF22E74B1A6008BD08B5002200920020C7
:101700000021E34A183A126802F04002E2B9421E90
:10171000DF4B183B1A6000BFDD4A183A126802F02E
:101720004001009A521C0092009AB2F5005F01D06D
:101730000029F1D0D64A183A126802F040020AB1E4
:10174000012002E0002000E0012008BD38B50020A3
:10175000009000240025CA20CD490860532008606D
:10176000FFF7CAFF00B952E00020C94924390860D8
:1017700042F20110091D0860081D006800F0070012
:10178000091D086000BFC2481838006800F0040452
:101790000098401C00900098B0F5005F01D0002C2C
:1017A000F1D0BB481838006800F0040008B90025E3
:1017B0002DE0B7481C3800680020B5491C39086086
:1017C0004FF6FF70B24910390860B248091F08602F
:1017D0000020AF490C390860091D0860091D086028
:1017E000AB4908310860AA4918310860A84920317E
:1017F0000860091D0860A64918390860A4491C3111
:101800000860FFF74BFF08B9002500E00125FF2025
:101810009F490860284638BD9D481838006820F068
:1018200080009B4918390860704730B50446002590
:10183000CA209749086053200860FFF75DFF00B990
:101840001DE093481C38006820F0400090491C3986
:10185000086008460068216808438D491C39086003
:101860008B491439A068086008460068A18840EADE
:101870000140874914390860FFF7CEFF0125FF209A
:1018800083490860284630BD002101607F21416006
:10189000FF218160704718B1FF217D4A116004E08B
:1018A000CA217B4A116053211160704730B504464C
:1018B0000025CA207649086053200860FFF71CFF06
:1018C00000B914E044B172481C38006840F01000C0
:1018D0006F491C39086007E06D481C38006820F02B
:1018E00010006B491C390860FFF796FF0125FF20A7
:1018F00067490860284630BDCA21654A11605321F6
:10190000116040B162491C39096841F02001604A08
:101910001C3A116007E05E491C39096801F0DF01DB
:101920005B4A1C3A1160FF21594A11607047014619
:10193000002204E0501CC2B2A1F10A00C1B20A297F
:10194000F8DA100741EA10607047014600BF080945
:1019500000EB8000420001F00F001044C0B270475D
:101960002DE9F04105460C460026002755B94848A8
:101970001C38006800F0400000B102E00020E07078
:1019800000BF0EE042481C38006800F0400020B163
:101990002078FFF7DAFF064602E00020E07000BF83
:1019A00000BF55B120780004617840EA0120A17899
:1019B0000843E17840EA014611E02078FFF7B7FFDD
:1019C0004FEA00486078FFF7B2FF48EA0028A078A5
:1019D000FFF7ADFF48EA0008E07848EA0046CA2071
:1019E0002B49086053200860FFF786FE08B90027DE
:1019F00014E029483040264924390860FFF70CFFDD
:101A000023481C38006800F0200030B9FFF746FE7C
:101A100008B9002702E0012700E00127FF201C4948
:101A200008603846BDE8F0810021C1700170417046
:101A30008170704770B506460C460025144824385E
:101A40000068154900EA0105C5F305402070C5F39B
:101A50000620607005F07F00A07005F48000000C87
:101A6000E0705EB92078FFF770FF20706078FFF7B4
:101A70006CFF6070A078FFF768FFA07070BD002059
:101A80000349091D086802492039096870470000A8
:101A900024280040FF007F007F7F7F002DE9F04178
:101AA00005460C46002600274DB9607800F010006E
:101AB000102804D1607820F010000A30607005B959
:101AC00008E06078FFF741FF0646A078FFF73DFF8A
:101AD000064600BF55B1E0780004617840EA012075
:101AE000A1780843217840EA413611E0E078FFF719
:101AF0001EFF4FEA00486078FFF719FF48EA002808
:101B0000A078FFF714FF48EA0008207848EA40363A
:101B1000CA20FE49086053200860FFF7EDFD08B9B0
:101B2000002714E0FA483040F84920390860FFF7F0
:101B300073FEF6481C38006800F0200030B9FFF74B
:101B4000ADFD08B9002702E0012700E00127FF20D2
:101B5000EE4908603846BDE8F081012101708170CE
:101B600041700021C170704770B506460C460025D3
:101B7000E64820380068E64900EA0105280CE070D4
:101B8000C5F30420607005F03F00A070C5F342303B
:101B900020705EB9E078FFF7D8FEE0706078FFF75C
:101BA000D4FE6070A078FFF7D0FEA07070BD2DE964
:101BB000F04105460E46144600276DB9D3481C383F
:101BC000006800F0400000B102E00020E07000BFBB
:101BD000A06800B91AE019E0CC481C38006800F091
:101BE000400020B12078FFF7B0FE074602E0002059
:101BF000E07000BFA06820B9207BFFF7A6FE074673
:101C000004E0207BFFF7A1FE074600BF95B12078D6
:101C10000004617840EA0120A1780843E17840EAB5
:101C20000140217B40EA0160A1680843616840EA05
:101C300001071BE02078FFF77AFE4FEA0048607842
:101C4000FFF775FE48EA0028A078FFF770FE48EA23
:101C50000008E07848EA0048207BFFF768FE48EA81
:101C60000060A1680843616840EA0107CA20A749EB
:101C7000086053200860B6F5807F03D1A348083878
:101C8000076002E0A148001F0760FF209F4908602D
:101C9000BDE8F0810021C1700170417081708160E8
:101CA000012101730021416070472DE9F041064692
:101CB0000F4614460025B7F5807F03D193480838B6
:101CC000056802E09148001F0568C5F305402070D3
:101CD000C5F30620607005F07F00A07005F4800059
:101CE000000CE070C5F30560207305F08040A06033
:101CF00005F0803060607EB92078FFF726FE207006
:101D00006078FFF722FE6070A078FFF71EFEA070DB
:101D1000207BFFF71AFE2073BDE8F08138B502463C
:101D20000024009400230020CA24784D2C60532402
:101D30002C6041B1754C1C3C24681443734D1C3D10
:101D40002C6001201EE0714C1C3C246894436F4DB4
:101D50001C3D2C6000BF6D4C183C246804EA122323
:101D6000009C641C0094009CB4F5005F01D0002B23
:101D7000F1D0664C183C246804EA12240CB9002007
:101D800000E00120FF24614D2C6038BD30B50023F8
:101D9000CA245E4D2C6053242C6041EA0203B0F546
:101DA000807F03D1594C2034236002E0574C243407
:101DB0002360FF24554D2C6030BD01460020B1F555
:101DC000807F05D1514A20321268C2F30E0004E030
:101DD0004E4A24321268C2F30E007047CA214B4AA1
:101DE00011605321116049491C39096821F007012C
:101DF000464A1C3A11601146096801431160FF21EF
:101E0000424A11607047CA21404A11605321116053
:101E10003E4910390860FF21116070473B48103877
:101E2000006880B2704718B5014600230093002275
:101E30000020CA23354C23605323236049B1334B20
:101E40001C3B1B6843F48063304C1C3C2360012026
:101E50001FE02E4B1C3B1B6823F480632B4C1C3C67
:101E6000236000BF294B183B1B6803F00402009B52
:101E70005B1C0093009BB3F5005F01D0002AF1D0FA
:101E8000224B183B1B6803F004030BB9002000E051
:101E90000120FF231D4C236018BDCA221B4B1A6072
:101EA00053221A60194A1C3A126822F48022174BF6
:101EB0001C3B1A601A46126840EA01031A43134B8E
:101EC0001C3B1A60FF22114B1A6070470F481C38E8
:101ED000006800F480207047CA220C4B1A6053221D
:101EE0001A600A4A1C3A126822F4E002074B1C3BB3
:101EF0001A601A46126840EA01031A43034B1C3B5E
:101F00001A60FF22014B1A6070470000242800402D
:101F10003FFFFF0070B504460D460026CA20FE496B
:101F2000086053200860FFF7E7FB00B907E044EAC8
:101F30000500F9490C390860FFF76EFC0126FF2007
:101F4000F5490860304670BD30B504460025CA200A
:101F5000F149086053200860FFF7CEFB00B914E098
:101F600044B1ED481C38006840F08000EA491C3953
:101F7000086007E0E8481C38006820F08000E64967
:101F80001C390860FFF748FC0125FF20E249086082
:101F9000284630BDCA21E04A11605321116040B18A
:101FA000DD491C39096841F40001DB4A1C3A116023
:101FB00007E0D9491C39096821F40001D64A1C3AC6
:101FC0001160FF21D44A11607047CA21D24A1160C2
:101FD00053211160D0491C39096821F40021CE4AEF
:101FE0001C3A11601146096801431160FF21CA4A79
:101FF0001160704770B5034600200024CA25C64E04
:10200000356053253560C44D183D2D6805F4803585
:1020100055B100E0641CC04D183D2D6805F48035B5
:1020200015B1B4F5805FF5D1BB4D183D2D6805F4B1
:1020300080353DB943EA01051543B74E1836356082
:10204000012000E00020FF25B34E356070BD10B5C3
:102050000A460021B04B1C3B1B6840F6080423EAEB
:1020600004011AB140F40063194300E00143CA239C
:10207000A94C236053232360A74B1C3B1960FF230B
:10208000236010BD2DE9F04180460C461546002620
:102090000027A1480C300068A04900EA01069E48CC
:1020A000103000689E4900EA0107C6F30540207021
:1020B000C6F30620607006F07F00A07006F4800072
:1020C000000CE0700020E870C7F30420687007F08F
:1020D0003F00A870C7F342302870B8F1000F17D145
:1020E0002078FFF732FC20706078FFF72EFC6070DC
:1020F000A078FFF72AFCA0706878FFF726FC6870CC
:10210000A878FFF722FCA8702878FFF71EFC28703B
:10211000BDE8F081804814300068704741B97E4ABC
:102120001C32126822EA40027B4B1C331A6007E023
:10213000794A1C32126842EA4002774B1C331A601B
:10214000704739B1744A1C3212680243724B1C3317
:102150001A6006E0704A1C32126882436E4B1C33D0
:102160001A6070476C491C31096821F4C0516A4AF1
:102170001C321160114609680143116070476649BD
:102180001C31096821F4E061634A1C321160114678
:1021900009680143116070475F491C31096821F4E7
:1021A000C0415D4A1C32116011460968014311604B
:1021B000704740B158491C31096841F08001564AC6
:1021C0001C32116007E054491C31096821F080017C
:1021D000514A1C321160704740B14F491C310968A7
:1021E00021F400414C4A1C32116007E04A491C317D
:1021F000096841F40041484A1C321160704708B533
:1022000000220092444A2C320092009A02EB800293
:102210000092009A116008BD08B5014600200090A8
:102220003D482C300090009800EB81000090009811
:10223000006808BD38491C31096821F48021364AFC
:102240001C32116011460968014311607047F0B5F6
:1022500004460D4600270026CA202F490860532057
:1022600008602D481838006800F0080050B100E000
:10227000761C29481838006800F0080010B1B6F53F
:10228000005FF5D124481838006800F0080098B9BC
:1022900021481C38006800F0100058B945EA0400D5
:1022A0001D4908310860FFF7F9F908B9002704E073
:1022B000012702E0002700E00027FF201649086000
:1022C0003846F0BDCA22144B1A6053221A6091B1ED
:1022D000114A1C3A126820F004031A430E4B1C3BAF
:1022E0001A600D4A1C32126800F004031A430A4BAC
:1022F0001C331A6018E0084A1C3A126820F00403E4
:102300009A43054B1C3B1A60034A1C32126800F0CA
:1023100004039A43004B05E0242800407F7F7F00A0
:102320003FFFFF001C331A60FF222A4B1A607047E0
:1023300010B5014600200022264B183B1B68264C96
:1023400003EA040202EA01030BB1012000E00020CD
:1023500010BDC0F3100141F080011E4A183A126806
:1023600002F0800262EA01011A4A183A11607047CD
:1023700030B50146002000220023164C1C3424688E
:1023800004F00402134C1C3C24680C408D0C21FA10
:1023900005F502EAD53544EA05030E4C183C2468DD
:1023A00004EA11121BB194B20CB1012000E000202C
:1023B00030BD002101098AB242F08002054B183B72
:1023C0001B6803F0800363EA0202024B183B1A60A9
:1023D00070470000242800407FFF010010B5012154
:1023E0000846FFF7CBF800210120FFF7C7F810BD22
:1023F0000020B2490860091D0860091D0860091D18
:102400000860091D0860091D0860091D0860704703
:10241000AB4908607047AA48006800F440707047F4
:1024200030B1A749496841F00101A54A516005E072
:10243000A349496821F00101A14A5160704730B5B4
:1024400000228B071C0F0F2303FA04F29C4B083366
:102450008C1053F824309343994C08348D1044F871
:10246000253023468C1053F824308C07240F00FAB3
:1024700004F42343924C08348D1044F8253030BDC9
:10248000014600208D4A106820F440300843106057
:10249000704702460020894B1868104302F48023DD
:1024A000B3F5802F02D120F00F00084302F400237F
:1024B000B3F5002F03D120F0F00040EA011002F440
:1024C0008013B3F5801F03D120F4706040EA01202F
:1024D00002F40013B3F5001F03D120F4704040EA6A
:1024E0000130764B1860704739B1744A121F126878
:1024F0000243724B1B1F1A6006E0704A121F1268DB
:1025000082436E4B1B1F1A60704739B16B4A121F12
:1025100012688243694B1B1F1A6006E0674A121F4C
:1025200012680243654B1B1F1A60704710B50022EA
:10253000C20F20F0004081B13AB1604B1B1D1B68F7
:1025400003435E4C241D236017E05C4B08331B687B
:1025500003435A4C083423600FE03AB1574B1B1D1C
:102560001B688343554C241D236006E0534B0833FE
:102570001B688343514C0834236010BD40B14F4960
:10258000091D096841F000414C4A121D116007E025
:102590004A49091D096821F00041484A121D11608D
:1025A000704710B5012810D13AB1444B0C331B6869
:1025B0008B43424C0C3423607FE0404B0C331B6850
:1025C0000B433E4C0C34236077E0022813D14AB110
:1025D0003A4B0C331B68CC4303EA0443374C0C34AE
:1025E00023606AE0354B0C331B6843EA0143334CEC
:1025F0000C34236061E0032810D13AB12F4B103323
:102600001B688B432D4C1034236056E02B4B10334A
:102610001B680B43294C103423604EE0042813D16F
:102620004AB1264B10331B68CC4303EA0443234CC6
:102630001034236041E0214B10331B6843EA01430F
:102640001E4C1034236038E0052810D13AB11B4BE2
:1026500014331B688B43194C143423602DE0174B43
:1026600014331B680B43154C1434236025E00628F3
:1026700013D14AB1114B14331B68CC4303EA044312
:102680000E4C1434236018E00C4B14331B6843EADF
:1026900001430A4C143423600FE03AB1074B18335E
:1026A0001B688B43054C1834236006E0034B18333A
:1026B0001B680B43014C1834236010BD047C0040A0
:1026C0000000014010B50446B4F1804F08D101214B
:1026D0000846FEF764FF00210120FEF760FF5EE080
:1026E000FB48844208D101210220FEF758FF002157
:1026F0000220FEF754FF52E0F648844208D101213F
:102700000420FEF74CFF00210420FEF748FF46E0BE
:10271000F148844208D101210820FEF740FF002142
:102720000820FEF73CFF3AE0EC48844208D1012142
:102730001020FEF734FF00211020FEF730FF2EE0BE
:10274000E748844208D101212020FEF728FF00211C
:102750002020FEF724FF22E0E248844208D1012134
:102760000420FEF70BFF00210420FEF707FF16E010
:10277000DD48844208D101210820FEF7FFFE002138
:102780000820FEF7FBFE0AE0D848844207D1012169
:102790001020FEF7F3FE00211020FEF7EFFE10BD23
:1027A00000220288B0F1804F08D0C94B984205D072
:1027B000C84B984202D0C84B984204D14FF68F7351
:1027C0001A404B881A43C54B984207D0C44B9842D5
:1027D00004D04FF6FF431A400B891A4302804B681E
:1027E000C3620B8803850123838270474FF0FF315A
:1027F0004160002101800181418070470185828212
:1028000070470A46002101884FF68F731940114323
:102810000180704741627047C16270470146486A53
:1028200070470146088D704721B1028842F00202CC
:10283000028004E002884FF6FD731A400280704760
:1028400021B1028842F00402028004E002884FF6BF
:10285000FB731A400280704721B1028842F0800267
:10286000028004E002884FF67F731A4002807047AE
:1028700002884FF6F7731A40028002880A430280EA
:10288000704702884FF6FF431A40028002880A43CD
:102890000280704721B1028842F00102028004E008
:1028A00002884FF6FE731A400280704730B500234D
:1028B0000022048C4FF6FE752C400484028C038B9E
:1028C0004FF68F742340AC1E23400C8823436C1EAC
:1028D00022400C8922434C8822434C684463038382
:1028E000028430BD30B500230022048C4FF6EF7512
:1028F0002C400484028C038B48F6FF7423400C8820
:102900004FF6FF7505EA042423434FF6DF74224097
:102910000C8905EA041422434C8805EA0414224376
:102920004C6884630383028430BD30B500230022E9
:10293000048C4FF6FF652C400484028C838B4FF689
:102940008F7423400C8823434FF6FF5422400C8998
:102950004FF6FF7505EA042422434C8805EA042457
:1029600022434C68C4638383028430BD30B50023A6
:102970000022048C4EF6FF752C400484028C838B5D
:1029800048F6FF7423400C884FF6FF7505EA0424CF
:1029900023434DF6FF7422400C8905EA0434224398
:1029A0004C8805EA043422434C680464838302841F
:1029B00030BD00210180418041600181704770B5C8
:1029C0000346002000241846183001258D40ACB283
:1029D0001D8CA5431D8409B1082909D100EB6100B4
:1029E000056825F0700505600568154305600EE073
:1029F0000D1FC5F34E052844056825F4E045056024
:102A000005684FF6FF7606EA02263543056070BD7D
:102A10004163704781637047C163704701647047C9
:102A20000A460021018B4FF68F7319401143018331
:102A300070470A460021018B48F6FF7319404FF694
:102A4000FF7303EA02231943018370470A460021FA
:102A5000818B4FF68F7319401143818370470A466B
:102A60000021818B48F6FF7319404FF6FF7303EA8C
:102A700002231943818370470A460021018B4FF6D8
:102A8000F77319401143018370470A460021018BF7
:102A90004FF2FF7319404FF6FF7303EA0223194305
:102AA000018370470A460021818B4FF6F773194066
:102AB0001143818370470A460021818B4FF2FF73D7
:102AC00019404FF6FF7303EA0223194381837047CD
:102AD0000004004000080040000C004000100040CE
:102AE0000014004000080140000C014000100140AB
:102AF0000A460021018B4FF6FB73194011430183F5
:102B000070470A460021018B4FF6FF3319404FF6FC
:102B1000FF7303EA02231943018370470A46002129
:102B2000818B4FF6FB7319401143818370470A462E
:102B30000021818B4FF6FF3319404FF6FF7303EAF4
:102B400002231943818370470A460021018B4FF607
:102B50007F7319401143018370470A460021018B9E
:102B6000C1F30E014FF6FF7303EA022319430183F9
:102B700070470A460021818B4FF67F73194011433D
:102B8000818370470A460021818BC1F30E014FF605
:102B9000FF7303EA02231943818370470A46002129
:102BA000018C4FF6FD7319401143018470470A46AA
:102BB0000021018C4FF6DF7319404FF6FF7303EAD3
:102BC00002131943018470470A460021018C4FF615
:102BD000FF5319404FF6FF7303EA022319430184A0
:102BE00070470A460021018C4DF6FF7319404FF6DD
:102BF000FF7303EA023319430184704702894FF6D9
:102C0000F7731A40028102890A430281704730B586
:102C1000002301248C40A3B2048C9C430484048CC4
:102C200002FA01F5ADB22C43048430BD828B4FF221
:102C3000FF331A408283828B4FF6FF7303EA01232E
:102C40001A4382837047F0B50C46154600210022D6
:102C50000026078C4EF6FF7C07EA0C070784818B61
:102C6000028C4FF6FF7707EA043640F6FF473940FB
:102C70004FF6FF7707EA052739434FF6FF7707EA54
:102C80000337394345F6FF773A4046F480573A43D5
:102C900081830284F0BD828B4FF6F3731A408283E6
:102CA000828B0A4382837047F0B50C46154600219B
:102CB00000220026078C4FF6FF6C07EA0C070784FA
:102CC000818B028C4FF6FF7707EA04264FF60C77CC
:102CD00039404FF6FF7707EA03172F4339434FF286
:102CE000FF573A4046F480773A4381830284F0BD2F
:102CF000028B4FF2FF331A400283028B4FF6FF73B1
:102D000003EA01231A4302837047F0B50C461546C7
:102D1000002100220026078C4FF6EF7C07EA0C0703
:102D20000784018B028C4FF6FF7707EA041640F602
:102D3000FF4739404FF6FF7707EA033739434FF62D
:102D4000FF7707EA052739434FF65F773A4046F0A9
:102D500010073A4301830284F0BD028B4FF6F373F0
:102D60001A400283028B0A4302837047F0B50C4677
:102D7000154600210022068C4FF6FE773E40068461
:102D8000018B028C4FF60C7631407E1C06EA03164E
:102D90002E4331434FF6F576324044F0010632437C
:102DA00001830284F0BD70B505460C46208850B9F9
:102DB0002389A28861882846FFF7D8FFE188284642
:102DC000FFF7CBFF25E0208804280AD12389A288B9
:102DD00061882846FFF799FFE1882846FFF788FFBA
:102DE00017E0208808280AD12389A288618828460C
:102DF000FFF75AFFE1882846FFF74DFF09E02389D6
:102E0000A28861882846FFF71EFFE1882846FFF761
:102E10000DFF70BD002101804180012181800021D2
:102E2000C180018170472DE9F04105460C4600261E
:102E30000127608808B9022600E00026A088012842
:102E400001D1022700E001272088A0B92389A288A8
:102E500061882846FFF78AFFE1882846FFF77DFF53
:102E600023893A4631462846FFF74FFFE188284636
:102E7000FFF73EFF13E02389A28861882846FFF709
:102E800044FFE1882846FFF733FF23893A4631465D
:102E90002846FFF76BFFE1882846FFF75EFFBDE895
:102EA000F0810146486B70470146886B70470146C8
:102EB000C86B70470146086C70471AB183890B4391
:102EC000838102E083898B438381704781827047CD
:102ED00002460020138A0B400BB1012000E00020C5
:102EE0007047CA430282704730B502460020002373
:102EF0000024158A05EA0103958905EA010413B146
:102F00000CB1012000E0002030BDCA4302827047AE
:102F100041EA0203A0F8483070471AB183890B4395
:102F2000838102E083898B438381704721B182884A
:102F300042F00802828004E082884FF6F7731A405C
:102F40008280704701894FF6F87211400181704705
:102F50000A46002101894FF68F7319401143018100
:102F6000704730B504460D4629462046FFF7F0FF6E
:102F7000208940F00700208130BD2DE9F041044652
:102F80000D4616461F46602D06D13B4601223146AE
:102F90002046FFF7BAFE05E03B46012231462046B7
:102FA000FFF7E4FE29462046FFF7D2FF208940F0D4
:102FB00007002081BDE8F08130B50C460021018971
:102FC000C9B24FF6FF7505EA03251543254329438A
:102FD000018130BD2DE9F04105460E461746984661
:102FE000002443463A4631462846FFF7E5FF2C8940
:102FF0004FF6F870044044F007044FF68F70044019
:1030000044F070042C81BDE8F081F0B504460D4613
:1030100016461F463B46324629462046FFF7CCFF60
:10302000208940F480402081F0BD82884FF68F7364
:103030001A40828082880A438280704702894FF654
:10304000F8731A40028102890A430281704702899B
:103050004FF67F731A40028102890A43028170474A
:10306000F0B50C4615461E460021002200230189BA
:10307000028B038C4FF6F877394021434FF6FC471B
:103080003A4040F201173A434FF6DD773B404FF6A6
:10309000FF7707EA06172F433B430181028303842E
:1030A000F0BD21B1828842F08002828004E08288F3
:1030B0004FF67F731A408280704730F8502F02EA33
:1030C0001142028002888BB21A4320F850297047BF
:1030D00010B50446F748844209D101218803FEF760
:1030E0004DFA00214FF48040FEF748FA32E0F248F2
:1030F000844209D101214804FEF751FA00214FF41E
:103100000030FEF74CFA25E0EC48844209D1012159
:103110008804FEF744FA00214FF48020FEF73FFABE
:1031200018E0E748844209D10121C804FEF737FAC4
:1031300000214FF40020FEF732FA0BE0E148844210
:1031400008D101210805FEF72AFA00214FF480106A
:10315000FEF725FA10BD2DE9FF4705460E4600246F
:10316000A14600BFA046B08900B100BF2C8A24F45C
:103170004054F08804432C82AC8941F20C608443B3
:10318000B08831890843718908430443AC81AC8A13
:1031900024F44074B0890443AC826846FEF706F913
:1031A000C448854202D1DDF80C9001E0DDF80890BA
:1031B000A88900F4004040B109EBC90000EB0910F8
:1031C00031684900B0FBF1F707E009EBC90000EBFB
:1031D000091031688900B0FBF1F76420B7FBF0F00B
:1031E00004012009642101FB1078A88900F4004043
:1031F00040B1322000EBC800B0FBF1F000F0070056
:10320000044308E0322000EB08106421B0FBF1F029
:1032100000F00F0004432C81BDE8FF874FF41651E6
:10322000016000218180C18001810C214181002148
:103230008181704710B502460020108A20F470602A
:103240000B884C8823438C882343CC882343184322
:10325000108210BD0021018041808180C1807047B3
:1032600021B1828942F40052828104E082894DF6C4
:10327000FF731A4082817047028B02F47F420283FF
:10328000028B0A430283704721B1828942F40042D3
:10329000828103E08289C2F30E028281704721B1EC
:1032A000828A42F40062828204E0828A4FF2FF73D3
:1032B0001A4082827047C1F308028280704701463B
:1032C0008888C0F308007047028A4FF6F0731A40EE
:1032D0000282028A0A430282704721B1828942F047
:1032E0000202828104E082894FF6FD731A408281D6
:1032F000704782894FF2FF731A40828182890A43A4
:1033000082817047028A4FF6DF731A400282028A76
:103310000A430282704721B1028A42F4804202824B
:1033200004E0028A4BF6FF731A40028270478189DB
:1033300041F001018181704721B1828A42F0080287
:10334000828204E0828A4FF6F7731A4082827047C5
:10335000028BD2B20283028B42EA012202837047BF
:1033600021B1828A42F02002828204E0828A4FF6F2
:10337000DF731A408282704721B1828A42F01002C4
:10338000828204E0828A4FF6EF731A40828270478D
:10339000828A4FF6FB731A408282828A0A438282B3
:1033A000704721B1828A42F00202828204E0828A5E
:1033B0004FF6FD731A40828270471AB1838A0B431D
:1033C000838202E0838A8B4383827047F0B5034691
:1033D000002400260025002040F66A17B94200D1DB
:1033E00000BF1846C1F3421401F01F06012707FA77
:1033F00006F5012C01D10C3004E0022C01D1103073
:1034000000E014301AB107682F43076002E0076834
:10341000AF430760F0BD02460020B1F5007F00D148
:1034200000BF13880B400BB1012000E00020704763
:1034300001F40072B2F5007F00D100BFCA430280E0
:10344000704770B50246002400230025002040F696
:103450006A16B14200D100BFC1F3421501F01F034B
:10346000012606FA03F3012D02D19689334006E0C6
:10347000022D02D1168A334001E0968A33400C12A5
:10348000012606FA04F41688344013B10CB1012069
:1034900000E0002070BD10B50022002340F66A1441
:1034A000A14200D100BF0A1201249440A3B2DC4320
:1034B000048010BD00380140004400400048004036
:1034C000004C0040005000400CB5002001900090DE
:1034D0008748006840F480308549086000BF844810
:1034E000006800F4003000900198401C01900098A2
:1034F00018B90198B0F5A06FF1D17D48006800F4CB
:10350000003010B10120009001E0002000900098F0
:10351000012859D17748006840F0040075490860D7
:103520000846006840F0020008600846006840F065
:10353000010008606E482430006840F080506C49FB
:1035400024310860C8146C49086000BF6A484068AC
:1035500000F010000028F9D165480830006864497F
:10356000083108600846006808600846006808607E
:103570000846006820F47D0008600846006840F4B2
:10358000110008605A48006840F08070584908608F
:1035900000BF5748006800F000700028F9D0544878
:1035A0000830006820F003005149083108600846DF
:1035B000006840F00300086000BF4D480830006814
:1035C00000F00C000C28F8D10CBD10B5484800687C
:1035D00040F4807046490860454808300068474913
:1035E00008404349083108604148006844490840A0
:1035F0003F4908600846006820F4802008603C4885
:103600000830006820F47D00394908310860002046
:10361000091D0860FFF758FF4FF000603949086046
:1036200010BD70B500220020002100240023304D81
:1036300008352D6805F00C0232B1042A10D0082A92
:1036400012D00C2A39D113E0294D2D1D2D68C5F358
:1036500042335D1C0126AE40F5032B4E356038E049
:103660002A4D294E356034E0294D274E356030E033
:103670001F4D08352D6805F470101D4D08352D6857
:1036800005F44001234D05EB90452878012505EB15
:103690009151174D08352D6805F4803434B91B4D10
:1036A0004543B5FBF1F5184E356005E0184D45432F
:1036B000B5FBF1F5144E35600BE00D4D2D1D2D6859
:1036C000C5F342335D1C0126AE40F5030E4E356056
:1036D00000BF00BF064D08352D68C5F303150E4E1B
:1036E000725D094D2D68D540074E356070BD0000F4
:1036F00000380240003C0240007000400CC0FF88CF
:10370000FEFFFEEE08ED00E0200000200024F400A3
:1037100000127A00240000202D0000201CB5012199
:103720002020FDF7E7FE00208DF8040002208DF830
:10373000070000208DF80500032000906946FE4830
:10374000FDF7FCFB00212020FDF7D4FE0121042021
:10375000FDF7D0FE00208DF8040002208DF8070050
:1037600000208DF805004FF4005000906946F348A2
:10377000FDF7E4FB00210420FDF7BCFE0121084613
:10378000FDF7B8FE00208DF8040002208DF8070038
:1037900049F6FF7000906946E948FDF7CFFB00202D
:1037A0008DF8040001208DF80700000200906946A2
:1037B000E348FDF7C3FB01210220FDF79BFE00203B
:1037C0008DF8040002208DF807004FF6FF7000907E
:1037D0006946DC48FDF7B2FB00208DF804008DF847
:1037E00007004FF4406000906946D648FDF7A6FBFD
:1037F00001208DF8040000208DF807008DF80600E8
:103800008DF8050000224FF48071CE48FDF714FCBE
:103810004FF4807000906946CA48FDF78FFB002284
:103820008021C848FDF708FC802000906946C54803
:10383000FDF784FB01221103C148FDF7FDFB4FF4A6
:10384000805000906946BE48FDF778FB0122802138
:10385000BB48FDF7F1FB802000906946B848FDF7B2
:103860006DFB1CBD1CB501210846FDF743FE002081
:103870008DF8040001208DF80700000200906946D1
:10388000AF48FDF75BFB02208DF807008002009037
:103890006946AB48FDF752FB01208DF8040000207B
:1038A0008DF806008DF8050001221103A448FDF7EC
:1038B000C3FB4FF4805000906946A148FDF73EFBE2
:1038C000012280219E48FDF7B7FB802000906946C9
:1038D0009B48FDF733FB01208DF8040000208DF894
:1038E00006008DF80500012211039548FDF7A4FBA1
:1038F0002020009069469348FDF720FB0121042019
:10390000FDF7F8FD01208DF8040000208DF8060079
:103910008DF8050000224FF480718A48FDF78CFB7A
:103920004FF48070009069468648FDF707FB00223F
:103930004FF400718348FDF77FFB4FF40070009057
:1039400069468048FDF7FAFA1CBD1CB50020FDF75A
:1039500082FC01212020FDF7CDFD00208DF8040020
:1039600002208DF8070000208DF80500032000904C
:1039700069467148FDF7E2FA00212020FDF7BAFD03
:1039800001210420FDF7B6FD00208DF8040002207F
:103990008DF8070000208DF805004FF400500090CE
:1039A00069466648FDF7CAFA01210846FDF7A2FDFF
:1039B00000208DF8040002208DF8070049F6FF7002
:1039C000009069465E48FDF7B9FA4FF480700090A8
:1039D00001208DF8070069465948FDF7AFFA01212B
:1039E0000220FDF787FD00208DF8040002208DF8ED
:1039F00007004FF6FF70009069465248FDF79EFAA7
:103A000000208DF8040001208DF80700E0200090D0
:103A100069464C48FDF792FA00208DF80400022018
:103A20008DF807000002009069464648FDF786FAC7
:103A300002208DF80700009069464248FDF77EFAA3
:103A40004FF48050009001208DF8070069463C48F3
:103A5000FDF774FA8020009000208DF80700694679
:103A60003748FDF76BFA1CBD1CB501210846FDF770
:103A700041FD00208DF804008020009000208DF88A
:103A800005008DF8070069462D48FDF757FA1CBD63
:103A900010B54FF4C050FDF737FB00BF1020FDF705
:103AA0009DFB0028FAD101210807FDF745FD002004
:103AB000FDF717FB0120FDF724FB0120FDF71EFB9E
:103AC00000210220FDF723F910BD0EB54FF4801040
:103AD000FDF7CCF94FF48010009000208DF8040021
:103AE00008208DF8050001208DF806006846FDF7D6
:103AF00046F903208DF808000A208DF809000020FF
:103B00008DF80A0001208DF80B0002A8FCF7F1FDEA
:103B100000208DF8040008208DF8050001208DF8A4
:103B20000600400400906846FDF729F929208DF829
:103B30000800092008E000000014024000080240CC
:103B400000000240000402408DF8090000208DF8BA
:103B50000A0001208DF80B0002A8FCF7CAFD0EBD7B
:103B60000EB501210846FDF7D6FC08210020FEF71E
:103B700066FC4FF48070009000208DF804000C204B
:103B80008DF8050001208DF806006846FDF7F7F86E
:103B900017208DF8080005208DF8090000208DF809
:103BA0000A0001208DF80B0002A8FCF7A2FD0EBD53
:103BB00010B54FF44070FCF797FDFFF7AFFDFFF72E
:103BC00051FE00F0BAFE01F0C3F800F06AF800F010
:103BD00057FB01F0EAF9FFF7C3FFFFF776FFFFF7A6
:103BE00057FF10BD10B5FFF7B0FE00F018FE012121
:103BF0000220FDF78CF801210846FDF7BFFAFFF718
:103C0000D7FF10BD10B50446204600F054FD10BD8E
:103C1000B0B91849096821F48061164A116011464B
:103C2000096821F400611160111D096821F48061A7
:103C3000121D11601146096821F40061116017E03E
:103C40000C49096841F480610A4A1160111D096834
:103C500041F48061121D1160111F096841F4006177
:103C6000121F1160111D096841F40061121D1160DD
:103C700070470000000401401CB501210220FDF73F
:103C800039FC03208DF804000220009000208DF8FC
:103C9000070001208DF8050069465248FDF74EF9EE
:103CA0001CBD00B587B00120FDF72CFB00BF212013
:103CB000FDF7D8FA0028FAD0FFF7DEFF4A48FCF7F4
:103CC00083FD01214802FDF726FC4FF400300090EF
:103CD0006846FCF7B9FD01A8FCF7A9FD002001909A
:103CE0008DF808008DF809000390059001208DF8EB
:103CF000180001A93C48FCF775FD072301220921A2
:103D00003948FCF7F8FD01224FF440313648FCF702
:103D1000BFFD10213448FCF7C4FD01213248FCF7F7
:103D2000A1FD00BF40213048FCF7C4FF0028F9D0B6
:103D300007B000BD70B50025002400BF18E02A4878
:103D4000FCF785FE022000F0B6FC00BF02212648E9
:103D5000FCF7B0FF0028F9D02348FCF7B4FE234954
:103D600021F81500084630F815000444681C85B297
:103D7000042DE4DBA40840F6D640444304F5006477
:103D8000240BA0B270BD70B50025002400BF0BE06D
:103D90001749681C31F8100021F81500084630F862
:103DA00015000444681C85B2072DF1DBFFF7C2FF44
:103DB0000F49C8810846C0890444E408B4F5FA6F85
:103DC00002D24FF4FA6404E0B4F5166F01D94FF44F
:103DD0001664A4F5FA64A40806490C700846007835
:103DE00070BD00000004024000240140400000209B
:103DF000CC0000203E0000202DE9F04104460D4695
:103E0000002700BF0EE014F8016B3146FE48FFF7B3
:103E100052FA00BF8021FC48FFF7FDFA0028F9D0D4
:103E2000781C87B2AF42EEDB052000F044FCBDE811
:103E3000F081014609B9F5487047012901D1F448DC
:103E4000FAE7022901D1F348F6E7032901D100205E
:103E5000F2E7042901D10020EEE7052901D1002075
:103E6000EAE70020E8E710B5034600241846FFF70C
:103E7000E0FF02460AB9002010BD548B2046FBE744
:103E80002DE9F0478246884600265046FFF7D1FFCD
:103E90000446278B668B16B90020BDE8F087701E9C
:103EA00086B2002519E0A06810F80790781C80B24F
:103EB0000746E189884200DB0027B9F10D0F0AD1DE
:103EC000A06810F80790B9F10A0F04D1A81C86B2B7
:103ED00045F2555703E0681C85B2B542E3DB00BFED
:103EE00045F2555087421DD1002518E0218BA0686E
:103EF000405C08F8010B012000F0CAFB208B401C3D
:103F000080B22083E189884201DB00202083608B1E
:103F1000401E6083002000F0BBFB681C85B2B542E8
:103F2000E4DB00E000263046B7E72DE9F0418046AB
:103F30000D4600274046FFF77CFF0446678B17B904
:103F40000020BDE8F081002618E0218BA068405CCD
:103F500005F8010B012000F09BFB208B401C80B278
:103F60002083E189884201DB00202083608B401E92
:103F70006083002000F08CFB701C86B2BE42E4DB44
:103F80003846DEE708B525208DF8000005208DF8BD
:103F9000010000208DF8020001208DF80300684622
:103FA000FCF7A7FB26208DF8000005208DF8010006
:103FB00000208DF8020001208DF803006846FCF710
:103FC00098FB27208DF8000005208DF801000020C7
:103FD0008DF8020001208DF803006846FCF789FB8C
:103FE00008BD00B587B001210846FDF783FA01211D
:103FF0008803FDF790FA072209218748FDF727F883
:1040000007220A218448FDF722F800208DF81A00C3
:1040100001208DF81B0002208DF818000002059089
:1040200002208DF8190005A97B48FCF787FF0220C4
:104030008DF818004002059005A97748FCF77EFF2F
:104040004FF4166001904FF48050ADF80800002046
:10405000ADF80A004FF48060ADF80C000020ADF818
:1040600010000C20ADF80E0001A96748FFF773F8A7
:10407000012240F225516448FFF7A8F90121624866
:10408000FFF7EEF840216048FFF7D2F9012108461A
:10409000FDF730FA01214804FDF74EFA072202210C
:1040A0005D48FCF7D4FF072203215B48FCF7CFFFF4
:1040B00000208DF81A0001208DF81B0002208DF8D9
:1040C00018000420059002208DF8190005A9524817
:1040D000FCF734FF02208DF818000820059002201C
:1040E0008DF8190005A94C48FCF728FF4FF416502D
:1040F00001900020ADF80800ADF80A00ADF80C0002
:10410000ADF810000C20ADF80E0001A94348FFF7F0
:1041100022F8012240F225514048FFF757F90121CA
:104120003E48FFF79DF840213C48FFF781F9012107
:104130000220FDF7DFF901218804FDF7FDF90722D0
:104140000A213748FCF783FF07220B213448FCF78C
:104150007EFF00208DF81A0001208DF81B00022040
:104160008DF818004002059002208DF8190005A96D
:104170002B48FCF7E3FE02208DF818008002059022
:1041800005A92748FCF7DAFE40F6C41001904FF469
:104190008050ADF808004000ADF80A00C010ADF83E
:1041A0000C000020ADF810000C20ADF80E0001A9A5
:1041B0001C48FEF7D0FF012240F225511948FFF7B5
:1041C00005F901211748FFF74BF840211548FFF783
:1041D0002FF907B000BD0C480C4908601248486030
:1041E000124888604FF400708881C88100200882DE
:1041F0004882C882088348838882C861086248620E
:1042000006480349086013E000380140DC00002044
:10421000040500202C09002000000240004400405A
:104220000004024000480040040100200403002074
:10423000F8484860F84888604FF400708881C88169
:10424000002008824882C882088348838882C86127
:1042500008624862F148F2490860F2484860F24852
:1042600088604FF400708881C881002008824882ED
:10427000C882088348838882C861086248627047A0
:1042800010B5FFF7A8FFFFF7ACFEFFF77BFE10BDF0
:10429000014609B9E5487047012901D1E448FAE728
:1042A000022901D1DD48F6E7032901D10020F2E718
:1042B000042901D10020EEE70020ECE72DE9F041D0
:1042C00004460E461746012000F0E2F9002511E0F1
:1042D000705D228A61688854208A401C80B22082E6
:1042E000A189884201DB00202082A08A401CA08294
:1042F000681C85B2BD42EBDB002000F0C9F9012249
:1043000040F227712068FFF761F8BDE8F0812DE9E0
:10431000F04105460E4617462846FFF78AFD04463B
:104320000CB9BDE8F081E06908B1E06980473A4620
:1043300031462046FFF7C2FF00BFF2E713B504463F
:10434000012201A92046FFF7E2FF1CBD70B504461B
:104350000D46012000F09CF9668B002000F098F9D2
:104360000EB9002070BD218BA068405C2870012030
:1043700000F08EF9208B401C80B22083E1898842B6
:1043800001DB00202083608B401E6083002000F052
:104390007FF90120E6E770B505460E462846FFF78F
:1043A00048FD04460CB9002070BD31462046FFF799
:1043B000CDFFF9E700B503461846FFF73AFD024680
:1043C00002B900BD002010825082908200BFF8E741
:1043D00000B503461846FFF72CFD024602B900BDA2
:1043E0000020D0821083508300BFF8E72DE9FF47FB
:1043F000044688460025A94600BF00276846FCF70A
:10440000D5FF8A48844202D1DDF80C9001E0DDF846
:104410000890A08900F4004040B109EBC90000EB0E
:1044200009104FEA4801B0FBF1F607E009EBC900BB
:1044300000EB09104FEA8801B0FBF1F66420B6FBEF
:10444000F0F005012809642101FB1067A08900F440
:10445000004040B1322000EBC700B0FBF1F000F0AB
:104460000700054308E0322000EB07106421B0FB91
:10447000F1F000F00F0005432581BDE8FF8770B51E
:1044800005460E462846FFF703FF044604B970BDF3
:1044900031462046FFF7AAFF00BFF8E71CB501210F
:1044A0000220FDF727F801208DF8040000208DF888
:1044B00006008DF8070002208DF80500012000900D
:1044C00069465C48FCF73AFD1CBD10B50446214620
:1044D0000220FFF7D4FF10BD012056491831088093
:1044E0007047012053491A310880704770B504465F
:1044F0000D462A4621460220FFF709FF70BD70B520
:104500000446204602F06CFD85B229462046FFF79E
:10451000EDFF70BD704770B5044608212068FEF7B6
:104520007AFF30B108212068FEF782FF2068FEF78D
:10453000C6FE40F225512068FEF783FFE0B12068F7
:10454000FEF7BDFEC5B2E18AA0684554E08A401C72
:1045500080B2E082E189884201DB0020E082608B4A
:10456000E189884202DA608B401C6083606A10B186
:104570002846616A884700BF40F227712068FEF72D
:1045800060FF08B3A08A60B9002240F2277120685A
:10459000FEF71CFF012240F226612068FEF716FF9D
:1045A00037E0638A6268D15C2068FEF784FE608A27
:1045B000401C80B26082A189884201DB00206082B9
:1045C000A08A401EA08224E040F226612068FEF707
:1045D00038FFF0B1A08A50B9002240F2266120686D
:1045E000FEF7F4FE206AA0B1206A804711E0638ADA
:1045F0006268D15C2068FEF75EFE608A401C80B273
:104600006082A189884201DB00206082A08A401E6E
:10461000A08270BD2C0500202C070020004800401F
:104620002C09002054090020540B002000380140C0
:10463000004400400004024010B51748FFF76BFF2C
:1046400010BD10B51548FFF766FF10BD10B5144832
:10465000FFF761FF10BD70B504460D46E1B2114889
:10466000FEF729FE00BF80210E48FEF7D4FE002889
:10467000F9D0204670BD10B5044600BF202109487E
:10468000FEF7C9FE0028F9D00648FEF718FE10BD57
:1046900080F3108870470000DC0000200405002033
:1046A0002C0900200038014000E000BF0100A0F10B
:1046B0000100FAD17047014606E04FF4AF7001E007
:1046C00000BF401E0028FBD10A00A1F10101F4D176
:1046D000704700B503461846FFF7E6FF00BD10B56A
:1046E00004462046FFF7E7FF10BD10B504462046FC
:1046F000FFF7E1FF10BD00207047000010B54FF438
:104700008070FDF715FE80B10120FCF7DEFC4FF450
:104710008050FDF74EFE0020FCF7D7FCF8480068FB
:1047200020F020002030F64908604FF40030FCF7FC
:104730009DFB0120FCF752FD10B10120FCF758FD54
:1047400010BD10B54FF48040FDF712FE18B14FF4C4
:104750008040FDF72EFE4FF48010FCF787FB012010
:10476000FCF73CFD10B10120FCF742FD10BD70B517
:10477000044600BF0120FCF7A8FC0020FDF753FB16
:104780004FF48060FDF7E5FD0120FDF727FB04EB0A
:10479000C40000EB4410401D0A21B0FBF1F5B5F553
:1047A000805F01D340F6FF752846FDF72CFB4FF4E0
:1047B0008040FDF7FEFD4FF48010FCF757FB012110
:1047C0008803FDF77FFD0120FDF72DFB0020FCF79E
:1047D0007CFC70BD10B504460120FCF776FC00207F
:1047E000FDF721FB4FF48060FDF7B3FD0420FDF7DA
:1047F000F5FA2046FDF707FB4FF48040FDF7D9FDA1
:104800004FF48010FCF732FB01218803FDF75AFDBD
:104810000120FDF708FB0020FCF757FC10BD1FB579
:104820000120FCF752FC00214FF48070FDF776FA6E
:10483000B4484078172802DD1720B2494870B148C3
:1048400080783B2802DD3B20AE498870AD48C078B7
:104850003B2802DD3B20AB49C87000208DF80300E7
:10486000A84840788DF80000A64880788DF80100AF
:10487000A448C0788DF802001F208DF80C0000209D
:1048800002904FF000400190019840F40000019028
:104890006A464FF480710020FDF789F94FF480508B
:1048A000FDF787FD4FF40030FCF7E0FA0121080323
:1048B000FDF708FD01210802FDF730FA0020FCF7A2
:1048C00004FC1FBD1FB5002401210807FCF734FEBE
:1048D0000120FCF7FAFB0120FCF717FD08E0641C3F
:1048E0000A20FFF7E8FEFA2C02D3012004B010BD25
:1048F0004920FCF7B7FC0028F1D04FF48030FCF7DA
:10490000D1FD0120FCF7EEFDFCF7C8FE7F200290F0
:10491000FF2003900020019001A8FCF786FF0020F3
:104920008DF803008DF800008DF801008DF802006D
:104930006946FDF715F80020D8E710B500240020DF
:10494000FDF76AFC43F2F22188420BD0FFF7BAFF71
:1049500004462CB943F2F2210020FDF750FC0AE096
:10496000204610BD01210807FCF7E6FD0120FCF7F9
:10497000ACFBFCF793FE0020F3E70146CA1701EBFE
:1049800092729210A1EB820292B9642091FBF0F234
:1049900000FB121050B94FF4C87091FBF0F200FB0D
:1049A000121008B9012070470020FCE70120FAE747
:1049B0000020F8E72DE9F74782B080464FF0000A63
:1049C000002600230027002499469DF80F4004F19B
:1049D0000800C4B2182C00DA04E0A4F11800C4B234
:1049E0004FF001098DF803409DF810008DF8040088
:1049F0009DF811008DF805009DF80C609DF80D30B4
:104A00009DF80E70B9F1000F27DD012B01DA0123AB
:104A100002E00C2B00DD0C2306F5FA6A5046FFF786
:104A2000ACFF08B1384D00E0384D581E285CB84244
:104A300004DD781CC7B24FF0000901E00127B94638
:104A4000B9F1000F09DD0C2B04DA581CC3B24FF08A
:104A5000000902E00123701CC6B28DF800608DF8D9
:104A600001308DF802700098C8F80000BDF804000D
:104A7000A8F8040005B0BDE8F0877CB5044600BF87
:104A800069460020FCF7D6FF9DF80000E0709DF815
:104A9000010020719DF80200607101A90020FDF75E
:104AA00063F89DF8070020709DF8050060709DF880
:104AB0000600A0700025E078C0EB4011C1EB00209B
:104AC00005EB00152079C0EB001005EB800560793F
:104AD000054428467CBD1CB501A90020FCF7AAFFAF
:104AE0009DF8060000909DF805309DF8042008A16F
:104AF0000C4802F0EFFA0B490BA002F0DBFA1CBDE8
:104B0000A8000020C80E0020E6730008F273000819
:104B100025302E32643A25302E32643A25302E323A
:104B200064000000540D002025730D0A00000000F1
:104B30000EB502A90020FDF717F89DF808009DF8B2
:104B40000A10CDE900109DF809309DF80B203EA118
:104B5000434802F0BFFA4249AFF2340002F0AAFA29
:104B60000EBDF3B5002300249DF8000000F5FA61A6
:104B70009DF801209DF80240032A00DB04E002F1C9
:104B80000C0082B2481E81B2551C05EB4505052676
:104B900095FBF6F5022606FB024635440D44084611
:104BA000CE1701EB967605EBA605642691FBF6F68B
:104BB000AD1B4FF4C87691FBF6F63544072695FBFE
:104BC000F6F706FB17556D1CABB2D8B2FCBD03B5AA
:104BD00087B001A8DDE90712FFF7ECFEDDE901016E
:104BE000CDE905010120FCF770FA9DF817008DF85A
:104BF0000C009DF818008DF80D009DF819008DF837
:104C00000E0003A90020FCF7ABFE9DF814008DF800
:104C100013009DF815008DF811009DF816008DF811
:104C20001200DDE90501FFF79CFF8DF8100004A9D3
:104C30000020FCF733FF0020FCF747FA0948FFF794
:104C40001CFF09B000BD000025302E32642D253038
:104C50002E32642D25302E32642D25302E31640005
:104C6000860D00204800002010B501218807FEF7BE
:104C70003BF901286BD101218007FEF746F94E4828
:104C8000006820F0400040304B4908604B48006805
:104C9000401C4A4908604A480068401C484908606E
:104CA00045488068C0F3C25003280CD1084600680C
:104CB00064284CD34FF480514248FCF7C4F90020DB
:104CC0003F49086043E03C488068C0F3C250012877
:104CD00027D13D480088012816D03948006830287F
:104CE00035D300224FF480513648FCF7A5F93448FB
:104CF000006832282BD300203149086001221103BB
:104D00003048FCF799F922E02D48006804281ED3AA
:104D10004FF480512B48FCF796F900202849086091
:104D200015E027480068942811D300224FF48051E1
:104D30002448FCF781F922480068962807D3002010
:104D40001F490860012211031E48FCF775F910BDC8
:104D50001FB501210846FCF7EFFB1420ADF8040055
:104D60000020ADF806004FF4BB7002900020ADF8B3
:104D70000C0001A94FF08040FDF712FD1C208DF8BA
:104D8000000008208DF8010000208DF802000120AD
:104D90008DF803006846FBF7ACFC01218807FEF79D
:104DA000A0F8012211469007FEF787F80121880735
:104DB000FDF770FD1FBD0000A8000020500000207E
:104DC00058000020000002405E00002010B504469C
:104DD000204600F0B3F908B9012010BD00F0C6F874
:104DE00000F0B6F80020F8E72DE9F04105468846C6
:104DF00016461F46B8F1000F03D0F019B0F5005F5A
:104E000002DD0020BDE8F08100F0F7F8284600F050
:104E100008F900F04DF900B12DE0301200F001F971
:104E200000F046F900B126E0F0B200F0FAF800F028
:104E30003FF900B11FE000F0E0F845F0010000F09C
:104E4000F0F800F035F900B115E000240DE000F0B5
:104E500010F908F80400781EA04202D000F045F9CD
:104E600001E000F058F9601C84B2BC42EFDB00F0B6
:104E70006FF80120C6E700F079F800F069F800202B
:104E8000C0E72DE9F04706460F469046994627B100
:104E900008EB0900B0F5005F02DD0020BDE8F087F7
:104EA0004546002439E014B105F01F0050BB00F066
:104EB0004FF84FF0000A0FE000F09FF8304600F086
:104EC000B0F800F0F5F800B909E00220FEF79AFE0C
:104ED0000AF101001FFA80FABAF57A7FECDB00BF15
:104EE000BAF57A7F00D11EE0281200F09AF800F09F
:104EF000DFF800B117E0E8B200F093F800F0D8F85E
:104F000000B110E0385D00F08CF800F0D1F800B18D
:104F100009E0681C85B2601C84B24C45C3DB00F01C
:104F200017F80120BAE700F021F800F011F800208E
:104F3000B4E7000008B50020009004E09DF80000F0
:104F4000401CC0B200909DF800000528F6DB08BDAB
:104F500010B58020874908804020891E0880FFF70F
:104F6000E9FF80208349891E088010BD08B5802094
:104F70008049891E088040200880002000900FE0B2
:104F8000FFF7D8FF40207B490880FFF7D3FF402080
:104F90007849891E08809DF80000401CC0B200902E
:104FA0009DF800000928EBDB08BD1CB5012102209B
:104FB000FCF7B1FA01208DF804008DF806008DF899
:104FC00005008020009069466A481A38FBF7B6FF52
:104FD00001208DF8040000208DF8060001208DF8D6
:104FE000050040200090694662481A38FBF7A6FF8A
:104FF000FFF7BCFFFFF7ACFF1CBD10B580205D497B
:10500000891E088040200880FFF794FF80205949BE
:105010000880FFF78FFF402056490880FFF78AFF7E
:1050200010BD70B50446002520E004F0800020B1DA
:1050300080205049891E088002E080204D49088068
:10504000FFF778FF40204B49891E0880FFF772FF69
:10505000402048490880072D02D18020891E088001
:105060006006040EFFF766FF681CC5B2082DDCDB86
:1050700070BD70B50024002516E06006040E4020C7
:105080003C49891E0880FFF755FF3A480A380088D6
:1050900000F0800008B1601CC4B24020354908808F
:1050A000FFF748FF681CC5B2082DE6DB204670BD3F
:1050B00010B580202F49891E0880FFF73BFF402054
:1050C0002C49891E0880FFF735FF2A480A380088D6
:1050D00000F0800008B1012400E0002440202549B0
:1050E0000880FFF727FF204610BD10B5802021491A
:1050F0000880FFF71FFF40201E49891E0880FFF728
:1051000019FF40201B490880FFF714FF8020194930
:10511000891E088010BD10B580201649891E0880A0
:10512000FFF708FF40201349891E0880FFF702FFA0
:10513000402010490880FFF7FDFE10BD70B5044601
:105140000C480A38008800F0800088B109480A3805
:10515000008800F0400058B1FFF74FFF2046FFF7EE
:1051600060FFFFF7A5FF0546FFF7F2FE284670BD7A
:105170000120FCE71A0402402DE9F04104460E46E6
:105180001546002700224FF48051FE48FBF754FFDC
:10519000A2B22B463146A020FFF773FE07460A2035
:1051A000FEF730FD01221103F648FBF745FF01270A
:1051B0003846BDE8F0812DE9F04104460E4615461B
:1051C0000027A2B22B463146A020FFF70DFE07466E
:1051D00001273846BDE8F08110B5002400BF03E088
:1051E000E9480455601CC4B2202CF9DB2022E649B2
:1051F000D000FFF7C1FF2022E3490020FFF787F826
:105200003220FFF758FA002404E00020DE49085558
:10521000601CC4B2202CF8DB2022DB49D000FFF751
:10522000CAFF2022D8490020FFF771F810BD10B541
:1052300002460B460020002104E0545C0444E0B226
:105240004C1CA1B29942F8DBC0F1FF0010BD00B5C3
:105250000020CE49086048608860087348730E21BA
:10526000CA48FFF7E4FFC94988735520C87300BDD9
:1052700070B5002418E04FF4007505EB041505F136
:105280000F000122C049FFF796FFBF48007855285C
:1052900008D10020BC49087005F10F000122FFF77A
:1052A0006BFF03E0601C84B2102CE4DB00BF002421
:1052B00018E04FF4C06505EB041505F10F0001225D
:1052C000B149FFF778FFB0480078552808D1002091
:1052D000AD49087005F10F000122FFF74DFF03E013
:1052E000601C84B2102CE4DB00BFFFF7B0FF70BD80
:1052F0002DE9F04105460F460E213846FFF797FF8E
:10530000B8735520F8734FF00008002419E02E46BA
:1053100006EB041606F10F0001229B49FFF74BFF35
:105320009948007855280AD100209749087006F15D
:105330000F000122FFF720FF4FF0FF0803E0601C81
:1053400084B2102CE3DB00BFB8F1000F01D10024C0
:1053500003E0601C84B204F00F042E4606EB041632
:10536000102239463046FFF707FFBDE8F08170B5DF
:10537000002421E04FF4007505EB041505F10F0042
:1053800001228149FFF717FF7F480078552811D186
:1053900010227D492846FFF70EFF0F217A48FFF7BC
:1053A00046FF064636B910227749784801F0F4FDE9
:1053B000012070BD601C84B2102CDBDB002427E0D0
:1053C0004FF4C06505EB041505F10F0001226E498D
:1053D000FFF7F1FE6C480078552817D110226A4972
:1053E0002846FFF7E8FE0F216748FFF720FF064633
:1053F00066B910226449654801F0CEFD4FF400758E
:1054000062492846FFF774FF0220D2E7601C84B28D
:10541000102CD5DB0020CCE770B5002421E04FF440
:10542000C06505EB041505F10F0001225649FFF791
:10543000C2FE55480078552811D1102252492846FD
:10544000FFF7B9FE0F215048FFF7F1FE064636B9C7
:1054500010224D494D4801F09FFD012070BD601C98
:1054600084B2102CDBDB002427E04FF4007505EB41
:10547000041505F10F0001224349FFF79CFE424845
:105480000078552817D110223F492846FFF793FE90
:105490000F213D48FFF7CBFE064666B910223A4978
:1054A0003A4801F079FD4FF4C06538492846FFF7C6
:1054B0001FFF0220D2E7601C84B2102CD5DB002035
:1054C000CCE710B54FF4407404F1100001222E49CE
:1054D000FFF771FE2C48007855280FD111222A4978
:1054E0002046FFF768FE10212748FFF7A0FE112293
:1054F0002549274801F050FD012010BD0020FCE7A0
:1055000070B54FF4E06505F1100001221E49FFF768
:1055100052FE1D480078552811D111221A492846FB
:10552000FFF749FE10211848FFF781FE044634B901
:1055300011221549164801F02FFD012070BD4FF4CE
:10554000407505F1100001220F49FFF734FE0E48A7
:105550000078552822D111220B492846FFF72BFE4F
:1055600010210948FFF763FE0446BCB91122064921
:10557000074801F011FD4FF4E06511220249284669
:1055800008E0000000000240B80D0020B80E002026
:10559000C80E0020FFF7F0FD0220CFE70020CDE786
:1055A00070B504465C48007800B970BD0F212046F4
:1055B000FFF73DFEE073552020744FF44075112233
:1055C00021462846FFF7D8FD00BFEEE770B5C0B012
:1055D00011254FF44076012269463046FFF7EBFD76
:1055E000681E1DF80000552805D04CA001F062FD92
:1055F000002040B070BD2A4669463046FFF7DBFD0B
:1056000011226946484801F0C7FC002406E04648DC
:105610000830015D45480155601CC4B2042CF6DB1E
:10562000414880894149891EC8803F4880888882D6
:105630003D48C088C8823EA001F03CFD404841780A
:1056400040A001F037FD0120D3E770B50446324891
:10565000007800B970BD102221463E4801F09CFC44
:105660004FF4007521462846FFF742FE4FF4C0650F
:1056700021462846FFF73CFE00BFEBE710B50020AF
:1056800025490870A020FFF7A1FB28B1012022497D
:10569000087031A001F00EFD1F480078002839DDA8
:1056A000FFF70FFF01F0E2FB1F48007A1F49891E38
:1056B00088701D48417A1D48801EC1701A48817A41
:1056C0001A48801E01711848C17A1848801E41711D
:1056D000154880891549891EC880134880888882AA
:1056E0001148C088C882002409E01548801C015D6B
:1056F0001D4801550D4817300155601CC4B2462C99
:10570000F3DB0F4840781849323981F87B000749AC
:10571000891E087610BD000060000020416464729C
:10572000204572722E0D0A00C80E00209A14002027
:1057300041646472206973204F4B2E0D0A000000F3
:1057400081170020416464724D6178203D202564FA
:105750002E0D0A00B80D0020456570726F6D20692E
:1057600073206F6B2E0D0A002D16002010B5024617
:105770000B460020002104E0545C0444E0B24C1CC1
:10578000A1B29942F8DB10BD02461088401C10807F
:105790001088884201DA0020704700201080012024
:1057A000FAE710B5F6488078401CF549887008463D
:1057B000807803280CDB08468078401E8870022021
:1057C000F04908700120EE494873EFA001F072FC27
:1057D00010BD2DE9F04106460D4614461F462088AF
:1057E000A8B900202870304601F0FAFB1FFA80F8B3
:1057F000424631460120FEF78AFD304601F0F0FBBB
:105800001FFA80F8424631460020FEF780FD2088CE
:10581000401C20802088B84209DA287810B900207E
:10582000BDE8F0810020208028700120F8E70020EA
:105830002080FFF7B6FF0020F2E710B50122110229
:10584000D648FBF7F9FB1420FEF735FF00224FF492
:105850008071D248FBF7F0FB1621C94801F0B5FB77
:1058600010BD70B504460D462088401C208020885D
:10587000032805DA01221102C848FBF7DDFB05E029
:1058800000224FF48071C548FBF7D6FB2088A84260
:1058900001DA002070BD002020801621B84801F0F8
:1058A00094FB0120F6E72DE9F84380460F460024DB
:1058B000002000900026002542F2107097FBF0F1C6
:1058C00000FB117084B20A2C01DA01260DE0642C71
:1058D00001DA022609E0B4F57A7F01DA032604E052
:1058E00042F21070844200DA042642F2107094FBF7
:1058F000F0F100FB114084B24FF47A7094FBF0F0A9
:10590000C0B28DF800004FF47A7094FBF0F100FB08
:10591000114084B2642094FBF0F0C0B28DF8010015
:10592000642094FBF0F100FB114084B20A2094FB48
:10593000F0F0C0B28DF802000A2094FBF0F100FBF9
:10594000114084B2E0B28DF80300002507E01DF895
:1059500005003030C0B20DF80500681CC5B2042D3A
:10596000F5DBC6F104006A46811832464046FEF770
:10597000CEFCC6F104006A46811832460020FEF7CC
:10598000C6FCBDE8F8832DE9F04780460D46144675
:105990001F464FF000090026208800283DD12870BE
:1059A0000B227FA14046FEF7B2FC0B227CA1002017
:1059B000FEF7ADFC00BF14E07C4810F806904946A5
:1059C0004046FFF770FF032E09DA012278A1404616
:1059D000FEF79DFC012276A10020FEF798FC701CCA
:1059E00086B2042EE8DB012272A14046FEF78FFC4E
:1059F000012270A10020FEF78AFC6C4808388189DA
:105A00004046FFF750FF02226BA14046FEF77FFCA5
:105A1000022269A10020FEF77AFC012F02DA0020A1
:105A2000BDE8F0872088401C20802088B84208DA32
:105A3000287808B90020F3E7002020802870012092
:105A4000EEE70020ECE770B50024002600255B4C53
:105A50004B48407B002835DD0020208048494873B2
:105A600008711621464801F0B0FA46480078401CFB
:105A70004449087008460078022823DB002008709B
:105A80004F480078401C4E4908704E48007808B9CD
:105A9000012000E000204A490978022901DD0121A6
:105AA00000E00021084010B1474801F07EF9474866
:105AB000006820F480604549086045A001F0FAFACA
:105AC000002070BD00252E480679102E03DB002033
:105AD0002C490870F5E7102E51D2DFE806F0080EC9
